:020000040800F2
:1000000000500020150900084D080008530800089A
:10001000590800085F080008650800080000000093
:100020000000000000000000000000006B08000855
:100030007708000800000000830800088F08000807
:100040005D0900085D0900085D0900085D090008F8
:100050005D0900085D0900085D0900085D090008E8
:100060005D0900085D0900085D0900085D090008D8
:100070005D0900085D0900085D0900085D090008C8
:100080005D0900085D0900085D0900085D090008B8
:100090005D0900085D0900085D0900085D090008A8
:1000A0005D0900085D0900085D0900085D09000898
:1000B0005D0900085D0900085D0900085D09000888
:1000C0005D0900085D0900085D0900085D09000878
:1000D0005D0900085D0900085D0900085D09000868
:1000E0005D0900085D0900085D09000800000000C6
:1000F0000000000000000000000000000000000000
:0C01000000000000000000005FF808F1A3
:10010C0010B5054C237833B9044B13B10448AFF345
:10011C0000800123237010BD70000020000000003F
:10012C004C26000808B5034B1BB103490348AFF339
:10013C00008008BD00000000740000204C26000860
:10014C00034613F8012B002AFBD1181A013870470B
:10015C0080B582B000AF78607868FFF7F1FF034696
:10016C009AB24FF0FF337968034801F091FB00BF5E
:10017C000837BD4680BD00BF3001002080B582B07D
:10018C0000AF78607868FFF7DBFF03469AB24FF058
:10019C00FF337968034801F07BFB00BF0837BD468D
:1001AC0080BD00BF3001002080B582B000AF0023BD
:1001BC00FB71C82200210F4801F000FE4FF0FF3305
:1001CC0001220C490C4801F0EEFB0A4B1B78FB7129
:1001DC00FB799AB24FF0FF330849074801F0E3FB73
:1001EC00044B5B78512BE4D1024800F047F900BF77
:1001FC00DFE700BF780100203001002079010020EA
:10020C0080B584B000AF72B600BF154B1B68FB60A5
:10021C00144B1B68BB60BB68B3F1FF3F03D0FB689A
:10022C00B3F1FF3F03D11048FFF792FF15E00F48E1
:10023C00FFF78EFFFB683B603B6883F3088800BFC9
:10024C000B4B074A9A60BFF34F8F00BFBFF36F8F02
:10025C0000BFBB687B607B6898471037BD4680BD8C
:10026C000040000804400008642600089C26000892
:10027C0000ED00E080B500AF00F06CFB00F020F862
:10028C0000F098F800F06CF800F056F84FF40051BC
:10029C00084800F06FFE0346002B05D10648FFF717
:1002AC006DFFFFF781FF04E00448FFF767FFFFF7DE
:1002BC00A7FFFEE700100140C0260008D826000862
:1002CC0080B590B000AF07F1180328220021184622
:1002DC0001F074FD3B1D00221A605A609A60DA60CE
:1002EC001A610223BB610123BB621023FB62002352
:1002FC007B6307F11803184600F06CFE0346002BD5
:10030C0001D000F087F90F237B600023BB60002332
:10031C00FB6000233B6100237B613B1D00211846E1
:10032C0001F0D8F80346002B01D000F073F900BFA0
:10033C004037BD4680BD000080B500AF064B074A74
:10034C001A60054800F04BFC0346002B01D000F06E
:10035C0061F900BF80BD00BFE0000020003002400A
:10036C0080B500AF114B124A1A60104B4FF4E132BA
:10037C005A600E4B00229A600C4B0022DA600B4B39
:10038C0000221A61094B0C225A61084B00229A6117
:10039C00064B0022DA61054801F02AFA0346002BCD
:1003AC0001D000F037F900BF80BD00BF3001002044
:1003BC000044004080B588B000AF07F11003002264
:1003CC001A605A609A60DA60294B9B69284A43F09C
:1003DC0010039361264B9B6903F01003FB60FB68D1
:1003EC00234B9B69224A43F004039361204B9B6986
:1003FC0003F00403BB60BB681D4B9B691C4A43F0B4
:10040C00080393611A4B9B6903F008037B607B68BC
:10041C0000222021174800F0C4FD4FF400533B612B
:10042C0000237B610123BB6107F1100319461248BD
:10043C0000F01CFC01233B6100237B610123BB61A9
:10044C0007F1100319460B4800F010FC20233B6108
:10045C0001237B610023BB610223FB6107F11003C5
:10046C001946044800F002FC00BF2037BD4680BD91
:10047C0000100240000801400010014080B592B00D
:10048C0000AF78602148FFF779FE7B681B78013359
:10049C007B647B6C043B7A6813441B683B647B6C09
:1004AC00043B3A6C1946786800F064F80346002B5C
:1004BC0023D11748FFF762FE7B681B780121184691
:1004CC0000F02CF800F08AF80346DBB287F83F30D6
:1004DC0097F83F301A4607F10C030E49184601F005
:1004EC0075FC07F10C031846FFF748FE07F13F03B4
:1004FC000121184600F07AF804E00748FFF73EFEA9
:10050C0000F026F800BF4837BD4680BDF426000831
:10051C0020270008442700086C27000880B584B009
:10052C0000AF03460A46FB711346BB71A5233B7310
:10053C00BB797B7307F10C014FF0FF3302220348A8
:10054C0001F0A6F900BF1037BD4680BD3001002078
:10055C0080B582B000AF7F23FB71F91D4FF0FF33E4
:10056C000122034801F094F900BF0837BD4680BD55
:10057C003001002080B588B000AFF860B9607A60B7
:10058C00FF23FB610023BB610FE0FA68BB691344D6
:10059C001B787B6107F11403012219460E4800F009
:1005AC003AFBF861BB690133BB61BA69BB689A421B
:1005BC00EBD3094B1B689A68074B1B6842F001028E
:1005CC009A60FA697B689A4201D1002300E001230A
:1005DC0018462037BD4680BDE000002080B400AF37
:1005EC0010231846BD4680BC7047000080B582B011
:1005FC0000AF786039603B689AB24FF0FF3379688E
:10060C00034801F045F900BF0837BD4680BD00BF67
:10061C003001002080B400AF72B600BFFEE70000CE
:10062C0080B485B000AF154B9B69144A43F00103AD
:10063C009361124B9B6903F00103BB60BB680F4BCA
:10064C00DB690E4A43F08053D3610C4BDB6903F03A
:10065C0080537B607B680A4B5B68FB60FB6823F014
:10066C00E063FB60FB6843F00073FB60044AFB68CB
:10067C00536000BF1437BD4680BC70470010024069
:10068C000000014080B485B000AF78607B681B68C7
:10069C00094A93420BD1094B5B69084A43F040036A
:1006AC005361064B5B6903F04003FB60FB6800BFC2
:1006BC001437BD4680BC7047003002400010024029
:1006CC0080B58CB000AF786007F1200300221A606F
:1006DC005A609A60DA607B681B68534A934232D145
:1006EC00524B9B69514A43F4804393614F4B9B6936
:1006FC0003F48043FB61FB694C4B9B694B4A43F011
:10070C0004039361494B9B6903F00403BB61BB6910
:10071C004FF400733B6202237B620323FB6207F1FD
:10072C0020031946424800F0A1FA4FF480633B6263
:10073C0000237B620023BB6207F1200319463C486F
:10074C0000F094FA6CE07B681B683A4A934230D113
:10075C00364BDB69354A43F40033D361334BDB69E9
:10076C0003F400337B617B69304B9B692F4A43F068
:10077C00040393612D4B9B6903F004033B613B69BC
:10078C0004233B6202237B620323FB6207F12003F9
:10079C001946274800F06AFA08233B6200237B6263
:1007AC000023BB6207F120031946214800F05EFAD2
:1007BC0036E07B681B68204A934231D11B4BDB69C6
:1007CC001A4A43F48023D361184BDB6903F480236A
:1007DC00FB60FB68154B9B69144A43F0080393615B
:1007EC00124B9B6903F00803BB60BB684FF480633A
:1007FC003B6202237B620323FB6207F12003194651
:10080C000E4800F033FA4FF400633B6200237B6226
:10081C000023BB6207F120031946084800F026FAB2
:10082C0000BF3037BD4680BD00380140001002408B
:10083C00000801400044004000480040000C01400A
:10084C0080B400AFFEE780B400AFFEE780B400AF29
:10085C00FEE780B400AFFEE780B400AFFEE780B4E3
:10086C0000AF00BFBD4680BC704780B400AF00BF76
:10087C00BD4680BC704780B400AF00BFBD4680BC95
:10088C00704780B500AF00F0ABF800BF80BD000032
:10089C0080B586B000AF7860144A154BD31A7B61D3
:1008AC007B693B61134B1B68002B02D1114B124A25
:1008BC001A60104B1A687B6813443A699A4207D243
:1008CC0001F052FA03460C221A604FF0FF3309E094
:1008DC00084B1B68FB60074B1A687B681344054A7E
:1008EC001360FB6818461837BD4680BD00500020C9
:1008FC00000400008C0000205802002080B400AFDF
:10090C0000BFBD4680BC7047FFF7F8FF0B480C4991
:10091C000C4A002302E0D458C4500433C4188C424F
:10092C00F9D3094A094C002301E013600432A242B6
:10093C00FBD301F01FFAFFF79DFC7047000000206D
:10094C0070000020F42700087000002054020020E2
:10095C00FEE7000080B500AF084B1B68074A43F068
:10096C0010031360032000F007F90F2000F008F8C3
:10097C00FFF756FE0023184680BD00BF0020024042
:10098C0080B582B000AF7860124B1A68124B1B789E
:10099C0019464FF47A73B3FBF1F3B2FBF3F3184639
:1009AC0000F011F90346002B01D001230EE07B6807
:1009BC000F2B0AD8002279684FF0FF3000F0E7F8CF
:1009CC00064A7B681360002300E0012318460837B1
:1009DC00BD4680BD0000002008000020040000205F
:1009EC0080B400AF054B1B781A46054B1B681344AB
:1009FC00034A136000BFBD4680BC7047080000204E
:100A0C004002002080B400AF024B1B681846BD4664
:100A1C0080BC70474002002080B485B000AF786085
:100A2C007B6803F00703FB600C4BDB68BB60BA68A8
:100A3C004FF6FF031340BB60FB681A02BB681343FD
:100A4C0043F0BF6343F40033BB60044ABB68D3601C
:100A5C0000BF1437BD4680BC704700BF00ED00E0FE
:100A6C0080B400AF044BDB681B0A03F00703184685
:100A7C00BD4680BC704700BF00ED00E080B483B081
:100A8C0000AF03463960FB7197F90730002B0ADB86
:100A9C003B68DAB20C4997F907301201D2B20B4419
:100AAC0083F800230AE03B68DAB20849FB7903F0CB
:100ABC000F03043B1201D2B20B441A7600BF0C3761
:100ACC00BD4680BC704700BF00E100E000ED00E0D7
:100ADC0080B489B000AFF860B9607A60FB6803F04D
:100AEC000703FB61FB69C3F10703042B28BF042335
:100AFC00BB61FB690433062B02D9FB69033B00E0A5
:100B0C0000237B614FF0FF32BB6902FA03F3DA4337
:100B1C00BB681A407B699A404FF0FF317B6901FA40
:100B2C0003F3D9437B680B40134318462437BD4667
:100B3C0080BC704780B582B000AF78607B68013BA9
:100B4C00B3F1807F01D301230FE00A4A7B68013B9C
:100B5C0053600F214FF0FF30FFF790FF054B002241
:100B6C009A60044B07221A60002318460837BD46CA
:100B7C0080BD00BF10E000E080B582B000AF7860AF
:100B8C007868FFF749FF00BF0837BD4680BD80B5C8
:100B9C0086B000AF0346B9607A60FB7300237B61BB
:100BAC00FFF75EFF78617A68B9687869FFF790FFA4
:100BBC00024697F90F3011461846FFF75FFF00BF4A
:100BCC001837BD4680BD80B582B000AF78607868BC
:100BDC00FFF7B0FF034618460837BD4680BD80B509
:100BEC0082B000AF78607B68002B01D101230EE04E
:100BFC007B685B79DBB2002B05D17B6800221A7114
:100C0C007868FFF73FFD7B6801225A710023184674
:100C1C000837BD4680BD80B487B000AFF860B960BE
:100C2C007A6000233B61FB6802225A7100237B61CE
:100C3C000AE07B699B00BA681A44FB681B6812685F
:100C4C001A607B6901337B617A697B689A42F0D3C5
:100C5C00FB681B681B683B61FB6801225A713B698E
:100C6C0018461C37BD4680BC7047000080B48BB062
:100C7C0000AF7860396000237B6200233B6269E13E
:100C8C0001227B6A02FA03F3FB613B681B68FA6979
:100C9C001340BB61BA69FB699A4240F058813B68CA
:100CAC005B689A4A93425ED0984A934275D8984AA8
:100CBC00934258D0964A93426FD8964A934252D058
:100CCC00944A934269D8944A93424CD0924A9342A4
:100CDC0063D8924A934246D0904A93425DD8122BE5
:100CEC002AD8122B59D801A252F823F0730D000800
:100CFC004D0D00085F0D0008A10D0008A70D0008A0
:100D0C00A70D0008A70D0008A70D0008A70D0008E7
:100D1C00A70D0008A70D0008A70D0008A70D0008D7
:100D2C00A70D0008A70D0008A70D0008A70D0008C7
:100D3C00550D0008690D0008794A934213D02CE038
:100D4C003B68DB683B6229E03B68DB6804333B6251
:100D5C0024E03B68DB6808333B621FE03B68DB68E0
:100D6C000C333B621AE03B689B68002B02D10423D6
:100D7C003B6213E03B689B68012B05D108233B6267
:100D8C007B68FA691A6109E008233B627B68FA699F
:100D9C005A6103E000233B6200E000BFBB69FF2BFC
:100DAC0001D87B6801E07B6804337B61BB69FF2B56
:100DBC0002D87B6A9B0002E07B6A083B9B003B618C
:100DCC007B691A680F213B6901FA03F3DB431A4074
:100DDC00396A3B6901FA03F31A437B691A603B6871
:100DEC005B6803F08053002B00F0B1804D4B9B6986
:100DFC004C4A43F0010393614A4B9B6903F0010396
:100E0C00BB60BB68484A7B6A9B08023352F82330AC
:100E1C00FB607B6A03F003039B000F2202FA03F3CF
:100E2C00DB43FA681340FB607B68404A934213D063
:100E3C007B683F4A93420DD07B683E4A934207D071
:100E4C007B683D4A934201D1032306E0042304E06E
:100E5C00022302E0012300E000237A6A02F003027D
:100E6C0092009340FA681343FB602F497B6A9B08FE
:100E7C000233FA6841F823203B685B6803F4801363
:100E8C00002B06D02D4B9A682C49BB6913438B6001
:100E9C0006E02A4B9A68BB69DB43284913408B60F8
:100EAC003B685B6803F40013002B06D0234BDA6815
:100EBC002249BB691343CB6006E0204BDA68BB695F
:100ECC00DB431E491340CB603B685B6803F4003383
:100EDC00002B06D0194B5A681849BB6913434B6059
:100EEC0006E0164B5A68BB69DB43144913404B6050
:100EFC003B685B6803F48033002B21D00F4B1A68DE
:100F0C000E49BB6913430B6021E000BF0000321097
:100F1C0000003110000022100000211000001210FF
:100F2C0000001110001002400000014000080140B8
:100F3C00000C01400010014000140140000401406D
:100F4C000B4B1A68BB69DB43094913400B607B6A86
:100F5C0001337B623B681A687B6A22FA03F3002B2D
:100F6C007FF48EAE00BF00BF2C37BD4680BC7047EF
:100F7C000004014080B485B000AF78600B467B80E4
:100F8C007B689A687B881340002B02D00123FB738B
:100F9C0001E00023FB73FB7B18461437BD4680BC75
:100FAC00704780B483B000AF78600B467B801346EB
:100FBC007B707B78002B03D07A887B681A6103E006
:100FCC007B881A047B681A6100BF0C37BD4680BC55
:100FDC007047000080B586B000AF78607B68002B4E
:100FEC0001D101236CE27B681B6803F00103002B29
:100FFC0000F08780924B5B6803F00C03042B0CD041
:10100C008F4B5B6803F00C03082B12D18C4B5B6885
:10101C0003F48033B3F5803F0BD1894B1B6803F489
:10102C000033002B6CD07B685B68002B68D10123EC
:10103C0046E27B685B68B3F5803F06D1804B1B684A
:10104C007F4A43F4803313602EE07B685B68002B8F
:10105C000CD17B4B1B687A4A23F480331360784B9A
:10106C001B68774A23F4802313601DE07B685B6860
:10107C00B3F5A02F0CD1724B1B68714A43F480233B
:10108C0013606F4B1B686E4A43F4803313600BE0A4
:10109C006B4B1B686A4A23F480331360684B1B68E4
:1010AC00674A23F4802313607B685B68002B13D0A2
:1010BC00FFF7A8FC386108E0FFF7A4FC02463B6987
:1010CC00D31A642B01D90323FAE15D4B1B6803F49B
:1010DC000033002BF0D014E0FFF794FC386108E0EB
:1010EC00FFF790FC02463B69D31A642B01D903230A
:1010FC00E6E1534B1B6803F40033002BF0D100E006
:10110C0000BF7B681B6803F00203002B63D04C4BC1
:10111C005B6803F00C03002B0BD0494B5B6803F0AE
:10112C000C03082B1CD1464B5B6803F48033002B5B
:10113C0016D1434B1B6803F00203002B05D07B68D0
:10114C001B69012B01D00123BAE13D4B1B6823F035
:10115C00F8027B685B69DB00394913430B603AE0AA
:10116C007B681B69002B20D0364B01221A60FFF7DD
:10117C0049FC386108E0FFF745FC02463B69D31A8D
:10118C00022B01D903239BE12D4B1B6803F00203B7
:10119C00002BF0D02A4B1B6823F0F8027B685B69AC
:1011AC00DB00274913430B6015E0264B00221A6025
:1011BC00FFF728FC386108E0FFF724FC02463B6986
:1011CC00D31A022B01D903237AE11D4B1B6803F0C0
:1011DC000203002BF0D17B681B6803F00803002B83
:1011EC003AD07B689B69002B19D0174B01221A60EF
:1011FC00FFF708FC386108E0FFF704FC02463B6986
:10120C00D31A022B01D903235AE10D4B5B6A03F06D
:10121C000203002BF0D0012000F0CCFA1CE00A4BAA
:10122C0000221A60FFF7EEFB38610FE0FFF7EAFBD4
:10123C0002463B69D31A022B08D9032340E100BFB5
:10124C000010024000004242800442429E4B5B6A06
:10125C0003F00203002BE9D17B681B6803F0040345
:10126C00002B00F0A6800023FB75974BDB6903F085
:10127C008053002B0DD1944BDB69934A43F0805380
:10128C00D361914BDB6903F08053BB60BB680123D6
:10129C00FB758E4B1B6803F48073002B18D18B4BA2
:1012AC001B688A4A43F480731360FFF7ABFB386109
:1012BC0008E0FFF7A7FB02463B69D31A642B01D960
:1012CC000323FDE0814B1B6803F48073002BF0D0EB
:1012DC007B68DB68012B06D17B4B1B6A7A4A43F097
:1012EC00010313622DE07B68DB68002B0CD1764B7D
:1012FC001B6A754A23F001031362734B1B6A724A13
:10130C0023F0040313621CE07B68DB68052B0CD113
:10131C006D4B1B6A6C4A43F0040313626A4B1B6AE5
:10132C00694A43F0010313620BE0674B1B6A664A80
:10133C0023F001031362644B1B6A634A23F004031A
:10134C0013627B68DB68002B15D0FFF75BFB386101
:10135C000AE0FFF757FB02463B69D31A41F2883289
:10136C00934201D90323ABE0574B1B6A03F00203F2
:10137C00002BEED014E0FFF745FB38610AE0FFF7D5
:10138C0041FB02463B69D31A41F28832934201D9A0
:10139C00032395E04C4B1B6A03F00203002BEED1A8
:1013AC00FB7D012B05D1484BDB69474A23F0805369
:1013BC00D3617B68DB69002B00F08180424B5B685A
:1013CC0003F00C03082B61D07B68DB69022B46D140
:1013DC003F4B00221A60FFF715FB386108E0FFF75E
:1013EC0011FB02463B69D31A022B01D9032367E098
:1013FC00354B1B6803F00073002BF0D17B681B6A24
:10140C00B3F5803F08D1304B5B6823F400327B6826
:10141C009B682D4913434B602B4B5B6823F4741270
:10142C007B68196A7B685B6A0B43274913434B60E3
:10143C00274B01221A60FFF7E5FA386108E0FFF745
:10144C00E1FA02463B69D31A022B01D9032337E098
:10145C001D4B1B6803F00073002BF0D02FE01C4BCE
:10146C0000221A60FFF7CEFA386108E0FFF7CAFADB
:10147C0002463B69D31A022B01D9032320E0124BFD
:10148C001B6803F00073002BF0D118E07B68DB695C
:10149C00012B01D1012313E00B4B5B68FB60FB6854
:1014AC0003F480327B681B6A9A4206D1FB6803F412
:1014BC0070127B685B6A9A4201D0012300E0002322
:1014CC0018461837BD4680BD001002400070004021
:1014DC006000424280B584B000AF786039607B68B0
:1014EC00002B01D10123D0E06A4B1B6803F00703EA
:1014FC003A689A4210D9674B1B6823F0070265497A
:10150C003B6813430B60634B1B6803F007033A689B
:10151C009A4201D00123B8E07B681B6803F00203F8
:10152C00002B20D07B681B6803F00403002B05D034
:10153C00594B5B68584A43F4E06353607B681B6803
:10154C0003F00803002B05D0534B5B68524A43F45D
:10155C0060535360504B5B6823F0F0027B689B68D0
:10156C004D4913434B607B681B6803F00103002B50
:10157C0040D07B685B68012B07D1474B1B6803F499
:10158C000033002B15D101237FE07B685B68022BB5
:10159C0007D1414B1B6803F00073002B09D10123C9
:1015AC0073E03D4B1B6803F00203002B01D10123B8
:1015BC006BE0394B5B6823F003027B685B68364950
:1015CC0013434B60FFF71EFAF8600AE0FFF71AFAB4
:1015DC000246FB68D31A41F28832934201D90323A5
:1015EC0053E02D4B5B6803F00C027B685B689B003F
:1015FC009A42EBD1274B1B6803F007033A689A42D7
:10160C0010D2244B1B6823F0070222493B6813437A
:10161C000B60204B1B6803F007033A689A4201D019
:10162C00012332E07B681B6803F00403002B08D015
:10163C00194B5B6823F4E0627B68DB681649134343
:10164C004B607B681B6803F00803002B09D0124B1E
:10165C005B6823F460527B681B69DB000E49134303
:10166C004B6000F021F802460B4B5B681B0903F042
:10167C000F030A49CB5C22FA03F3094A1360094BA6
:10168C001B681846FFF77CF9002318461037BD4637
:10169C0080BD00BF00200240001002408C270008D3
:1016AC00000000200400002080B487B000AF0023AD
:1016BC00FB600023BB6000237B6100237B60002365
:1016CC003B611E4B5B68FB60FB6803F00C03042B57
:1016DC0002D0082B03D027E0194B3B6127E0FB68B5
:1016EC009B0C03F00F03174AD35C7B60FB6803F47D
:1016FC008033002B10D0114B5B685B0C03F00103A3
:10170C00114AD35CBB607B680D4A02FB03F2BB68D9
:10171C00B2FBF3F37B6104E07B680C4A02FB03F33E
:10172C007B617B693B6102E0054B3B6100BF3B6920
:10173C0018461C37BD4680BC704700BF00100240E5
:10174C0000127A00A4270008B427000800093D0005
:10175C0080B400AF024B1B681846BD4680BC704776
:10176C000000002080B500AFFFF7F2FF0246054BEA
:10177C005B681B0A03F007030349CB5C22FA03F3F3
:10178C00184680BD001002409C27000880B500AFB1
:10179C00FFF7DEFF0246054B5B68DB0A03F007032D
:1017AC000349CB5C22FA03F3184680BD00100240BB
:1017BC009C27000880B485B000AF78600A4B1B688A
:1017CC000A4AA2FB03235B0A7A6802FB03F3FB6061
:1017DC0000BFFB685A1EFA60002BF9D100BF00BF96
:1017EC001437BD4680BC704700000020D34D6210FA
:1017FC0080B582B000AF78607B68002B01D10123EB
:10180C0042E07B6893F84130DBB2002B06D17B6859
:10181C00002283F840207868FEF752FF7B68242270
:10182C0083F841207B681B68DA687B681B6822F4AC
:10183C000052DA60786800F009FA7B681B681A6954
:10184C007B681B6822F490421A617B681B685A699A
:10185C007B681B6822F02A025A617B681B68DA6875
:10186C007B681B6842F40052DA607B6800225A6481
:10187C007B68202283F841207B68202283F8422059
:10188C007B6800225A63002318460837BD4680BD8A
:10189C0080B58AB002AFF860B9603B601346FB803C
:1018AC0000237B61FB6893F84130DBB2202B75D1B0
:1018BC00BB68002B02D0FB88002B01D101236EE00A
:1018CC00FB6800225A64FB68212283F84120FFF751
:1018DC0099F87861FB68FA889A84FB68FA88DA844C
:1018EC00FB689B68B3F5805F08D1FB681B69002B14
:1018FC0004D10023FB61BB68BB6103E0BB68FB61E7
:10190C000023BB612EE03B6800937B6900228021A1
:10191C00F86800F0DFF80346002B05D0FB682022A6
:10192C0083F8412003233AE0FB69002B0BD1BB6900
:10193C001B881A46FB681B68C2F308025A60BB6915
:10194C000233BB6107E0FB691A78FB681B685A60BD
:10195C00FB690133FB61FB68DB8C9BB2013B9AB2E8
:10196C00FB68DA84FB68DB8C9BB2002BCBD13B6829
:10197C0000937B6900224021F86800F0ABF8034625
:10198C00002B05D0FB68202283F84120032306E0BE
:10199C00FB68202283F84120002300E00223184634
:1019AC002037BD4680BD80B58AB002AFF860B96003
:1019BC003B601346FB8000237B61FB6893F842304D
:1019CC00DBB2202B40F08180BB68002B02D0FB885F
:1019DC00002B01D1012379E0FB6800225A64FB68DB
:1019EC00222283F84220FB6800221A63FFF70AF8D0
:1019FC007861FB68FA889A85FB68FA88DA85FB6857
:101A0C009B68B3F5805F08D1FB681B69002B04D180
:101A1C000023FB61BB68BB6103E0BB68FB61002377
:101A2C00BB6147E03B6800937B6900222021F8688A
:101A3C0000F050F80346002B05D0FB68202283F8F9
:101A4C004220032342E0FB69002B0CD1FB681B688E
:101A5C005B689BB2C3F308039AB2BB691A80BB697B
:101A6C000233BB611FE0FB689B68B3F5805F07D056
:101A7C00FB689B68002B0AD1FB681B69002B06D105
:101A8C00FB681B685B68DAB2FB691A7008E0FB68DC
:101A9C001B685B68DBB203F07F03DAB2FB691A7078
:101AAC00FB690133FB61FB68DB8D9BB2013B9AB296
:101ABC00FB68DA85FB68DB8D9BB2002BB2D1FB682F
:101ACC00202283F84220002300E00223184620370E
:101ADC00BD4680BD80B586B000AFF860B9603B6094
:101AEC001346FB713BE03B6AB3F1FF3F37D0FEF787
:101AFC0089FF02463B68D31A3A6A9A4202D33B6A80
:101B0C00002B01D103233AE0FB681B68DB6803F070
:101B1C000403002B23D0BB68802B20D0BB68402B48
:101B2C001DD0FB681B681B6803F00803082B16D13B
:101B3C0000237B61FB681B681B687B61FB681B686F
:101B4C005B687B617B69F86800F01DF8FB68082214
:101B5C005A64FB68002283F8402001230FE0FB68E5
:101B6C001B681A68BB681340BA689A420CBF012301
:101B7C000023DBB21A46FB799A42B4D000231846F4
:101B8C001837BD4680BD80B495B000AF78607B68D7
:101B9C001B680C337B637B6B53E8003F3B633B6BF5
:101BAC0023F49073FB647B681B680C33FA6C3A6407
:101BBC00FB63F96B3A6C41E80023BB63BB6B002BF6
:101BCC00E5D17B681B6814333B623B6A53E8003FEA
:101BDC00FB61FB6923F00103BB647B681B68143356
:101BEC00BA6CFA62BB62B96AFA6A41E800237B629A
:101BFC007B6A002BE5D17B681B6B012B19D17B68B1
:101C0C001B680C33FB60FB6853E8003FBB60BB6890
:101C1C0023F010037B647B681B680C337A6CBA610D
:101C2C007B617969BA6941E800233B613B69002B10
:101C3C00E5D17B68202283F842207B6800221A635E
:101C4C0000BF5437BD4680BC7047000080B584B0DF
:101C5C0000AF78607B681B681B6923F440517B687C
:101C6C00DA687B681B680A431A617B689A687B6830
:101C7C001B691A437B685B691343BB607B681B68F9
:101C8C00DB6823F4B05323F00C037A681268B9684C
:101C9C000B43D3607B681B685B6923F440717B68E2
:101CAC009A697B681B680A435A617B681B682C4ADB
:101CBC00934203D1FFF76AFDF86002E0FFF752FD93
:101CCC00F860FA6813469B0013449A001A447B6828
:101CDC005B689B00B2FBF3F3224AA2FB03235B0974
:101CEC001901FA6813469B0013449A001A447B6846
:101CFC005B689B00B2FBF3F21A4BA3FB02035B097C
:101D0C00642000FB03F3D31A1B013233154AA2FBE8
:101D1C0003235B0903F0F0031944FA6813469B0094
:101D2C0013449A001A447B685B689B00B2FBF3F285
:101D3C000C4BA3FB02035B09642000FB03F3D31AD7
:101D4C001B013233074AA2FB03235B0903F00F028A
:101D5C007B681B680A449A6000BF1037BD4680BD83
:101D6C00003801401F85EB51014B1868704700BFCC
:101D7C000C00002070B500260C4D0D4C641BA410FB
:101D8C00A64209D100F05CFC00260A4D0A4C641BEB
:101D9C00A410A64205D170BD55F8043B98470136F6
:101DAC00EEE755F8043B98470136F2E7EC270008BC
:101DBC00EC270008EC270008F02700080346024433
:101DCC00934200D1704703F8011BF9E70EB46FF092
:101DDC00004100B59CB01DAB029006900791049198
:101DEC000848094953F8042B0591006802A901938E
:101DFC0000F068F80022029B1A701CB05DF804EB2E
:101E0C0003B070470C0000200802FFFF2DE9F047DB
:101E1C008E6882469E420C4690461F4638D88A8968
:101E2C0012F4906F32D0256809690133A5EB0109D2
:101E3C0065694B4405EB450505EBD5756D109D4269
:101E4C0038BF1D46530531D5294600F053FB0646D5
:101E5C0050B90C234FF0FF30CAF80030A38943F07F
:101E6C004003A381BDE8F0874A46216900F0CEFA11
:101E7C00A38923F4906343F08003A38126614E442D
:101E8C0026603E466561A5EB0905A560BE4200D9FA
:101E9C003E4632464146206800F0C6FAA3682268E6
:101EAC009B1B32440020A3602260DBE72A4600F033
:101EBC007BFB06460028E1D15046216900F0CEFAA2
:101ECC00C7E700002DE9F04F98468B8907461B06A3
:101EDC000D4614469DB00ED50B6963B9402100F038
:101EEC0009FB2860286120B90C233B604FF0FF30C0
:101EFC00D1E040236B610023099320238DF8293016
:101F0C0030234FF00109CDF80C80DFF8A4818DF857
:101F1C002A3023469A4613F8012B0AB1252AF9D107
:101F2C00BAEB040B0BD05B46224629463846FFF72A
:101F3C006DFF013000F0AA80099A5A4409929AF870
:101F4C000030002B00F0A28000234FF0FF32CDE9CF
:101F5C0005230AF1010A049307938DF853301A9361
:101F6C005446052214F8011B514800F041FA049A1A
:101F7C00D8B9D00644BF20238DF85330110744BF85
:101F8C002B238DF853309AF800302A2B15D0544659
:101F9C0000204FF00A0C079A214611F8013B303B08
:101FAC00092B4ED9B0B1079214E0A0EB080309FA43
:101FBC0003F31343A2460493D2E7039B191D1B683A
:101FCC000391002BBBBF5B4242F0020207930793C5
:101FDC00B8BF049223782E2B0CD163782A2B35D1E1
:101FEC00039B02341A1D1B680392002BB8BF4FF0E1
:101FFC00FF330593DFF8C8A003225046217800F088
:10200C00F7F940B14023A0EB0A0003FA00F0049B5F
:10201C0001340343049314F8011B062225488DF860
:10202C00281000F0E5F9002838D0234B1BBB039B8C
:10203C00073323F0070308330393099B33440993B5
:10204C0067E70C4601200CFB0232A5E700234FF09A
:10205C000A0C194601340593204610F8012B303A2E
:10206C00092A03D9002BC5D00591C3E704460123E7
:10207C000CFB0121F0E703AB00932A4638460F4BCB
:10208C0004A9AFF30080421C0646D6D1AB895B068F
:10209C003FF52CAF09981DB0BDE8F08F03AB009352
:1020AC002A463846054B04A900F07CF8EBE700BF44
:1020BC00B6270008C027000800000000191E000801
:1020CC00BC2700082DE9F047164699468A680B692B
:1020DC0007469342B8BF1346336091F843200C4631
:1020EC00DDF820800AB1013333602368990642BFC2
:1020FC00336802333360256815F0060506D104F108
:10210C00190AE36832689B1AAB4228DC94F8432026
:10211C00131E226818BF012392062DD44946384657
:10212C0004F14302C047013020D02368E56803F076
:10213C000603042B18BF002532684FF00006A36875
:10214C0008BFAD1A226908BF25EAE5759342C4BFE2
:10215C009B1AED181A34B5421AD1002008E001235D
:10216C00524649463846C047013003D14FF0FF3044
:10217C00BDE8F0870135C4E73020E11881F8430051
:10218C005A1C94F845102244023382F84310C5E7D8
:10219C000123224649463846C0470130E6D0013675
:1021AC00D9E700002DE9FF470C46277E9146782F92
:1021BC0080469A460C9904F1430207D8622F0AD83C
:1021CC00002F00F0D980582F00F0A48004F14206B3
:1021DC0084F842703AE0A7F16303152BF6D801A0FE
:1021EC0050F823F0492200085D220008D92100088C
:1021FC00D9210008D9210008D92100085D22000846
:10220C00D9210008D9210008D9210008D9210008BA
:10221C006B2300088D2200084D230008D9210008EB
:10222C00D92100088D230008D92100088D2200082F
:10223C00D9210008D9210008552300080B6804F1A6
:10224C0042061A1D1B680A6084F842300123A4E080
:10225C00256808682E0600F104030AD505680B6092
:10226C00002D03DA2D236D4284F843300A235E4897
:10227C0019E015F0400F05680B6018BF2DB2EFE7A1
:10228C000B682568181D0860280601D51D6802E03A
:10229C006906FBD51D886F2F0CBF08230A235248F3
:1022AC00002184F843106668002EA8BF2168A66040
:1022BC00A4BF21F0040121600DB9002E4DD01646AB
:1022CC00B5FBF3F103FB1157C75D06F8017D2F46F3
:1022DC00BB420D46F4D9082B0BD12368DF0708D578
:1022EC00236961689942DEBF302306F8013C06F190
:1022FC00FF36921B22614B4621464046CDF800A08A
:10230C0003AAFFF7DFFE01304CD14FF0FF3004B0D1
:10231C00BDE8F087344884F845700E68236856F899
:10232C00045B1F060E6014D5D90744BF43F020038D
:10233C0023601DB9236823F0200323601023AFE72B
:10234C00236843F0200323607823284884F8453021
:10235C00E3E75E0648BFADB2E6E71646BBE70B689F
:10236C0026681D1D60690D6035061B6801D5186057
:10237C0002E07106FBD51880002316462361BAE7EC
:10238C000B681A1D0A601E6800213046626800F056
:10239C002FF808B1801B606063682361002384F808
:1023AC004330A8E73246494640462369D0470130BE
:1023BC00ABD023689B0713D4E068039B9842B8BF4B
:1023CC001846A4E70123324649464046D04701301F
:1023DC009BD00135E36803995B1AAB42F2DCEBE767
:1023EC00002504F11906F5E7C7270008D8270008CF
:1023FC00034610B5C9B202449342184601D10020DD
:10240C0003E0047801338C42F6D110BD0A449142AA
:10241C0000F1FF3300D1704710B511F8014B914218
:10242C0003F8014FF9D110BD884210B501EB02043D
:10243C0002D98442234607D8431EA14208D011F882
:10244C00012B03F8012FF8E7014602448A4200D120
:10245C0010BD13F8014D02F8014DF7E738B50546EC
:10246C00002943D051F8043C0C1F002BB8BFE418D2
:10247C0000F0D0F81E4A1368104633B9636014603C
:10248C002846BDE8384000F0CBB8A3420AD92168F1
:10249C006218934201BF1A685B685218226063602D
:1024AC000460EDE71A465B680BB1A342FAD91168D8
:1024BC005018A0420BD1206801445018834211607F
:1024CC00DED118685B68014411605360D8E702D90B
:1024DC000C232B60D4E7206821188B4201BF1968AC
:1024EC005B680918216063605460C9E738BD00BFA0
:1024FC0090000020F8B5CD1C25F0030508350C2DF7
:10250C0038BF0C25002D064601DBA94203D90C234C
:10251C0033600020F8BD00F07DF821490A681446AC
:10252C009CB9204F3B6823B92146304600F062F835
:10253C0038602946304600F05DF8431C23D10C234B
:10254C003046336000F06CF8E3E723685B1B17D46C
:10255C000B2B03D923601C44256004E06368A24262
:10256C000CBF0B605360304600F05AF804F10B00BE
:10257C00231D20F00700C21ACCD01B1AA350C9E7A8
:10258C0022466468CCE7C41C24F00304A042E3D0C8
:10259C00211A304600F02EF80130DDD1CFE700BF14
:1025AC009000002094000020F8B5074614460E4613
:1025BC0021B91146BDE8F840FFF79CBF22B9FFF7DF
:1025CC004DFF25462846F8BD00F030F8A0420FD24A
:1025DC0021463846FFF78EFF05460028F2D03146DB
:1025EC002246FFF713FF31463846FFF737FFE9E77E
:1025FC003546E7E738B50023054D044608462B6001
:10260C00FEF746F9431C02D12B6803B1236038BD99
:10261C0044020020014800F011B800BF4C02002019
:10262C00014800F00CB800BF4C02002051F8043CEB
:10263C00181F002BBCBF0B58C01870477047704751
:10264C00F8B500BFF8BC08BC9E467047F8B500BF93
:08265C00F8BC08BC9E46704763
:102664004E6F2076616C6964206170706C6963617F
:1026740074696F6E20666F756E642E205374617971
:10268400696E6720696E20626F6F746C6F61646538
:10269400722E2E2E0D0A00004A756D70696E672029
:1026A400746F2055736572204170706C6963617436
:1026B400696F6E2E2E2E0D0A00000000456E7465A3
:1026C4007220626F6F746C6F61646572206D6F64E9
:1026D400650A00004A756D7020746F207573657209
:1026E400206170706C69636174696F6E0A00000028
:1026F400424C5F44454255475F4D53473A626F6FC2
:10270400746C6F616465725F68616E646C655F6749
:1027140065747665725F636D640A0000424C5F44C1
:10272400454255475F4D53473A636865636B73751C
:102734006D20737563636573732021210A000000A3
:10274400424C5F44454255475F4D53473A205365D9
:102754006E64696E672056657273696F6E3A2030D5
:102764007825580A00000000424C5F444542554712
:102774005F4D53473A636865636B73756D2066619B
:10278400696C2021210A0000000000000000000004
:102794000102030406070809000000000102030403
:1027A40002030405060708090A0B0C0D0E0F10108E
:1027B4000102232D302B2000686C4C0065666745B0
:1027C40046470030313233343536373839414243A5
:1027D4004445460030313233343536373839616256
:0827E40063646566000000005B
:0427EC0031010008AF
:0427F0000D010008CF
:1027F40000127A0010000000010000001000002008
:1028040000000000000000000000000000000000C4
:1028140000000000000000000000000000000000B4
:1028240000000000000000000000000000000000A4
:102834000000000000000000000000000000000094
:102844000000000000000000000000000000000084
:102854000000000000000000000000000000000074
:0400000508000915D1
:00000001FF
