:020000040800F2
:10000000005000207D0C0008210C0008270C00087F
:100010002D0C0008330C0008390C0008000000000B
:100020000000000000000000000000003F0C00087D
:100030004B0C000800000000570C0008630C00087F
:10004000C50C0008C50C0008C50C0008C50C00084C
:10005000C50C0008C50C0008C50C0008C50C00083C
:10006000C50C0008C50C0008C50C0008C50C00082C
:10007000C50C0008C50C0008C50C0008C50C00081C
:10008000C50C0008C50C0008C50C0008C50C00080C
:10009000C50C0008C50C0008C50C0008C50C0008FC
:1000A000C50C0008C50C0008C50C0008C50C0008EC
:1000B000C50C0008C50C0008C50C0008C50C0008DC
:1000C000C50C0008C50C0008C50C0008C50C0008CC
:1000D000C50C0008C50C0008C50C0008C50C0008BC
:1000E000C50C0008C50C0008C50C00080000000085
:1000F0000000000000000000000000000000000000
:0C01000000000000000000005FF808F1A3
:10010C0010B5054C237833B9044B13B10448AFF345
:10011C0000800123237010BD180000200000000097
:10012C003425000808B5034B1BB103490348AFF352
:10013C00008008BD000000001C00002034250008D1
:10014C0080B582B000AF0023FB71C8220021244887
:10015C0002F0E2F94FF0FF3301222149214801F06E
:10016C00D6FF1F4B1B78FB71FB799AB24FF0FF3314
:10017C001D491C4801F0CBFF194B5B78513B062BFA
:10018C00E3D801A252F823F0B1010008B90100082C
:10019C00C1010008C9010008D1010008D9010008FB
:1001AC00E10100080E4800F019F917E00C4800F0C6
:1001BC0045F913E00A4800F06FF90FE0084800F029
:1001CC009DF90BE0064800F0C9F907E0044800F07F
:1001DC004DFA03E0024800F087FA00BFB5E700BF14
:1001EC0014010020CC0000201501002080B500AFC8
:1001FC0000F064FD00F014F800F08CF800F060F8EA
:10020C0000F04AF84FF40051044801F067FA034635
:10021C00002B01D1FFF794FFFEE700BF0010014057
:10022C0080B590B000AF07F11803282200211846C2
:10023C0002F072F93B1D00221A605A609A60DA6073
:10024C001A610223BB610123BB621023FB620023F2
:10025C007B6307F11803184601F070FA0346002B74
:10026C0001D000F0C2FB0F237B600023BB60002396
:10027C00FB6000233B6100237B613B1D0021184682
:10028C0001F0DCFC0346002B01D000F0AEFB00BFFC
:10029C004037BD4680BD000080B500AF064B074A15
:1002AC001A60054800F04FFE0346002B01D000F009
:1002BC009CFB00BF80BD00BF7C00002000300240D2
:1002CC0080B500AF114B124A1A60104B4FF4E1325B
:1002DC005A600E4B00229A600C4B0022DA600B4BDA
:1002EC0000221A61094B0C225A61084B00229A61B8
:1002FC00064B0022DA61054801F02EFE0346002B66
:10030C0001D000F072FB00BF80BD00BFCC0000200C
:10031C000044004080B588B000AF07F11003002204
:10032C001A605A609A60DA60294B9B69284A43F03C
:10033C0010039361264B9B6903F01003FB60FB6871
:10034C00234B9B69224A43F004039361204B9B6926
:10035C0003F00403BB60BB681D4B9B691C4A43F054
:10036C00080393611A4B9B6903F008037B607B685D
:10037C0000222021174801F0C8F94FF400533B61CB
:10038C0000237B610123BB6107F11003194612485E
:10039C0001F020F801233B6100237B610123BB6149
:1003AC0007F1100319460B4801F014F820233B61A8
:1003BC0001237B610023BB610223FB6107F1100366
:1003CC001946044801F006F800BF2037BD4680BD31
:1003DC0000100240000801400010014080B586B0BA
:1003EC0000AF78607B681B7801337B617B69043BD1
:1003FC007A6813441B683B617B69043B3A69194674
:10040C00786800F021FA0346002B11D17B681B7829
:10041C000121184600F0ECF900F04AFA0346DBB271
:10042C00FB7307F10F030121184600F049FA01E0B4
:10043C0000F0F8F900BF1837BD4680BD80B584B018
:10044C0000AF7860124B1B780133FB60FB68043BF8
:10045C000F4A13441B68BB60FB68043BBA6819461F
:10046C000B4800F0F1F90346002B0AD17B681B788E
:10047C000C21184600F0BCF90C21064800F020FABB
:10048C0001E000F0CFF900BF1037BD4680BD00BFC2
:10049C00140100200000002080B586B000AF786009
:1004AC00154B1B7801337B617B69043B124A134467
:1004BC001B683B6100F018FA0346FB817B69043B27
:1004CC003A6919460C4800F0BFF90346002B0CD1D1
:1004DC007B681B780221184600F08AF907F10E039D
:1004EC000221184600F0ECF901E000F09BF900BF86
:1004FC001837BD4680BD00BF1401002080B586B002
:10050C0000AF7860144B1B7801337B617B69043B33
:10051C00114A13441B683B6100F0F8F90346FB8158
:10052C007B69043B3A6919460B4800F08DF9034688
:10053C00002B0BD17B681B780221184600F058F970
:10054C00FB890221184600F0BBF901E000F06AF9C2
:10055C0000BF1837BD4680BD1401002080B58AB09D
:10056C0000AF78603A4B1B7801337B627B6A043BAB
:10057C00374A13441B683B627B6A043B3A6A194650
:10058C00334800F061F90346002B5BD17B681B7884
:10059C000121184600F02CF97B68D3F80230FB617E
:1005AC00F86900F0C7F90346012B40D10123FB7217
:1005BC0007F10B014FF0FF330122264801F01CFD1F
:1005CC0072B600BFFB691B68BB61FB6904331B6817
:1005DC007B61BB69B3F1005F03D3BB691E4A9342D5
:1005EC0007D94FF0FF330F221C491A4801F004FDC4
:1005FC002AE07B69B3F1006F03D37B69184A9342FD
:10060C0007D94FF0FF3319221649124801F0F4FCB8
:10061C001AE0BB69FB60FB6883F3088800BF124AD1
:10062C00FB6993607B693B613B6998470CE0002355
:10063C00BB7207F10A014FF0FF330122054801F0AC
:10064C00DBFC01E000F0EEF82837BD4680BD00BFB2
:10065C0014010020CC000020FFFF0120A825000879
:10066C0000000108B825000800ED00E080B586B058
:10067C0000AF78607B681B7801337B617B69043B3E
:10068C007A6813441B683B617B69043B3A691946E1
:10069C00786800F0D9F80346002B1CD17B689B7856
:1006AC00FB737B68DB78BB737B681B780121184676
:1006BC0000F09EF8FB7BBA7B1146184600F068F9F7
:1006CC0003467B7307F10D014FF0FF330122054800
:1006DC0001F092FC01E000F0A5F800BF1837BD4610
:1006EC0080BD00BFCC00002080B586B000AF786024
:1006FC000023FB727B681B78FB757B689B79BB7551
:10070C007B68D3F802303B617B681B780133FB605C
:10071C007B681B780121184600F06AF8386900F0F4
:10072C0009F90346012B11D17B680733BA7D39696E
:10073C00184600F01BF80346FB7207F10B014FF053
:10074C00FF330122084801F057FC09E00023FB723B
:10075C0007F10B014FF0FF330122034801F04CFC71
:10076C0000BF1837BD4680BDCC00002080B588B0D6
:10077C0000AFF860B9607A600023FB7700F09AFC58
:10078C00BB6803F00103002B01D001232BE00023F5
:10079C00BB611FE0BB690133FA6813441B781B0271
:1007AC001AB2F968BB690B441B781BB213431BB21A
:1007BC00FB82BA68BB69D118FA8A4FF0000301209A
:1007CC0000F008FC0346FB77FB7F002B07D1BB69CD
:1007DC000233BB61BA697B689A42DBD300E000BF8D
:1007EC0000F08EFCFB7F18462037BD4680BD000014
:1007FC0080B584B000AF03460A46FB711346BB714B
:10080C00A5233B73BB797B7307F10C014FF0FF33CE
:10081C000222034801F0F0FB00BF1037BD4680BD3B
:10082C00CC00002080B582B000AF7F23FB71F91D96
:10083C004FF0FF330122034801F0DEFB00BF083705
:10084C00BD4680BDCC00002080B588B000AFF860FC
:10085C00B9607A60FF23FB610023BB610FE0FA688B
:10086C00BB6913441B787B6107F114030122194601
:10087C000E4800F084FBF861BB690133BB61BA69B7
:10088C00BB689A42EBD3094B1B689A68074B1B68F1
:10089C0042F001029A60FA697B689A4201D1002306
:1008AC0000E0012318462037BD4680BD7C000020A7
:1008BC0080B400AF10231846BD4680BC70470000C2
:1008CC0080B582B000AF786039603B689AB24FF067
:1008DC00FF337968034801F08FFB00BF0837BD4632
:1008EC0080BD00BFCC00002080B483B000AF064BAD
:1008FC001B689BB2C3F30B03FB80FB8818460C37B9
:10090C00BD4680BC704700BF002004E080B483B0BB
:10091C0000AF0023FB71064B3B603B681B681B0A56
:10092C00FB71FB7918460C37BD4680BC704700BF85
:10093C0000F8FF1F80B483B000AF78607B68B3F120
:10094C00006F05D37B680F4A934201D8012314E052
:10095C007B680D4A934205D97B680C4A934201D8B7
:10096C0001230AE07B68B3F1005F05D37B68B3F128
:10097C00202F01D2012300E0002318460C37BD467E
:10098C0080BC7047FFFF0108FFEFFF1FFFF7FF1F41
:10099C0080B588B000AF786039607B689B02B3F596
:1009AC00804F1DD300F086FB00233B617B6803F571
:1009BC0000339B02BB613B68FB6107F10C0207F142
:1009CC0010031146184600F05DFC0346002B03D1C2
:1009DC0000F096FB002304E000F092FB012300E002
:1009EC00022318462037BD4680BD80B400AF72B6D6
:1009FC0000BFFEE780B485B000AF154B9B69144A6D
:100A0C0043F001039361124B9B6903F00103BB603C
:100A1C00BB680F4BDB690E4A43F08053D3610C4B20
:100A2C00DB6903F080537B607B680A4B5B68FB607F
:100A3C00FB6823F0E063FB60FB6843F00073FB6032
:100A4C00044AFB68536000BF1437BD4680BC704736
:100A5C00001002400000014080B485B000AF786007
:100A6C007B681B68094A93420BD1094B5B69084AA6
:100A7C0043F040035361064B5B6903F04003FB609A
:100A8C00FB6800BF1437BD4680BC70470030024085
:100A9C000010024080B58CB000AF786007F12003E5
:100AAC0000221A605A609A60DA607B681B68534AAD
:100ABC00934232D1524B9B69514A43F48043936128
:100ACC004F4B9B6903F48043FB61FB694C4B9B6967
:100ADC004B4A43F004039361494B9B6903F00403B5
:100AEC00BB61BB694FF400733B6202237B6203233F
:100AFC00FB6207F120031946424800F06BFC4FF4EF
:100B0C0080633B6200237B620023BB6207F12003FE
:100B1C0019463C4800F05EFC6CE07B681B683A4A66
:100B2C00934230D1364BDB69354A43F40033D36101
:100B3C00334BDB6903F400337B617B69304B9B697E
:100B4C002F4A43F0040393612D4B9B6903F004037C
:100B5C003B613B6904233B6202237B620323FB6200
:100B6C0007F120031946274800F034FC08233B62A8
:100B7C0000237B620023BB6207F120031946214846
:100B8C0000F028FC36E07B681B68204A934231D188
:100B9C001B4BDB691A4A43F48023D361184BDB6986
:100BAC0003F48023FB60FB68154B9B69144A43F0EC
:100BBC0008039361124B9B6903F00803BB60BB688D
:100BCC004FF480633B6202237B620323FB6207F1D9
:100BDC00200319460E4800F0FDFB4FF400633B6206
:100BEC0000237B620023BB6207F1200319460848EF
:100BFC0000F0F0FB00BF3037BD4680BD003801402F
:100C0C000010024000080140004400400048004031
:100C1C00000C014080B400AFFEE780B400AFFEE7EB
:100C2C0080B400AFFEE780B400AFFEE780B400AF45
:100C3C00FEE780B400AF00BFBD4680BC704780B4F7
:100C4C0000AF00BFBD4680BC704780B400AF00BF92
:100C5C00BD4680BC704780B500AF00F075F800BF92
:100C6C0080BD80B400AF00BFBD4680BC70470000A3
:100C7C00FFF7F7FF0B480C490C4A002302E0D4584D
:100C8C00C4500433C4188C42F9D3094A094C0023CC
:100C9C0001E013600432A242FBD301F019FCFFF710
:100CAC00A5FA704700000020180000200426000858
:100CBC001800002000020020FEE7000080B500AF05
:100CCC00084B1B68074A43F010031360032000F025
:100CDC0007F90F2000F008F8FFF78CFE00231846E8
:100CEC0080BD00BF0020024080B582B000AF7860AC
:100CFC00124B1A68124B1B7819464FF47A73B3FBDC
:100D0C00F1F3B2FBF3F3184600F011F90346002B94
:100D1C0001D001230EE07B680F2B0AD800227968E2
:100D2C004FF0FF3000F0E7F8064A7B6813600023B1
:100D3C0000E0012318460837BD4680BD0C0000209A
:100D4C00140000201000002080B400AF054B1B786D
:100D5C001A46054B1B681344034A136000BFBD467B
:100D6C0080BC704714000020DC01002080B400AF70
:100D7C00024B1B681846BD4680BC7047DC01002046
:100D8C0080B485B000AF78607B6803F00703FB602C
:100D9C000C4BDB68BB60BA684FF6FF031340BB60BB
:100DAC00FB681A02BB68134343F0BF6343F4003380
:100DBC00BB60044ABB68D36000BF1437BD4680BC1F
:100DCC00704700BF00ED00E080B400AF044BDB685F
:100DDC001B0A03F007031846BD4680BC704700BFD2
:100DEC0000ED00E080B483B000AF03463960FB71C6
:100DFC0097F90730002B0ADB3B68DAB20C4997F9FC
:100E0C0007301201D2B20B4483F800230AE03B688E
:100E1C00DAB20849FB7903F00F03043B1201D2B29A
:100E2C000B441A7600BF0C37BD4680BC704700BF20
:100E3C0000E100E000ED00E080B489B000AFF860A4
:100E4C00B9607A60FB6803F00703FB61FB69C3F1CF
:100E5C000703042B28BF0423BB61FB690433062B57
:100E6C0002D9FB69033B00E000237B614FF0FF32AA
:100E7C00BB6902FA03F3DA43BB681A407B699A40F8
:100E8C004FF0FF317B6901FA03F3D9437B680B40C8
:100E9C00134318462437BD4680BC704780B582B0DA
:100EAC0000AF78607B68013BB3F1807F01D30123F5
:100EBC000FE00A4A7B68013B53600F214FF0FF3073
:100ECC00FFF790FF054B00229A60044B07221A6033
:100EDC00002318460837BD4680BD00BF10E000E077
:100EEC0080B582B000AF78607868FFF749FF00BF2B
:100EFC000837BD4680BD80B586B000AF0346B960EB
:100F0C007A60FB7300237B61FFF75EFF78617A6880
:100F1C00B9687869FFF790FF024697F90F301146D0
:100F2C001846FFF75FFF00BF1837BD4680BD80B580
:100F3C0082B000AF78607868FFF7B0FF03461846C0
:100F4C000837BD4680BD80B582B000AF78607B6845
:100F5C00002B01D101230EE07B685B79DBB2002B07
:100F6C0005D17B6800221A717868FFF775FD7B68E4
:100F7C0001225A71002318460837BD4680BD80B443
:100F8C0087B000AFF860B9607A6000233B61FB6802
:100F9C0002225A7100237B610AE07B699B00BA68CC
:100FAC001A44FB681B6812681A607B6901337B6109
:100FBC007A697B689A42F0D3FB681B681B683B61BB
:100FCC00FB6801225A713B6918461C37BD4680BC30
:100FDC0070470000F0B587B000AFF860B960C7E9A2
:100FEC0000230123FB750023BB7500237B752F4B5E
:100FFC001B7E012B01D1022354E02C4B01221A76CB
:10100C004CF2503000F0A8F80346FB75FB7D002B2A
:10101C0044D1FB68012B02D101237B7507E0FB68EF
:10102C00022B02D102237B7501E004237B75002384
:10103C00BB752DE0BB7D5A00BB6802EB030CBB7D7E
:10104C001901D7E90023C1F12006A1F1200022FAF1
:10105C0001F403FA06F6344323FA00F0044323FAAE
:10106C0001F5A3B21946604600F05AF84CF2503024
:10107C0000F072F80346FB750D4B1B690C4A23F00C
:10108C0001031361FB7D002B07D1BB7D0133BB75C5
:10109C00BA7D7B7D9A42CDD300E000BF034B00228A
:1010AC001A76FB7D18461C37BD46F0BDE0010020CA
:1010BC000020024080B483B000AF0023FB710D4BC5
:1010CC001B6903F08003002B0DD00A4B0A4A5A60AF
:1010DC00084B0A4A5A60074B1B6903F08003002B2C
:1010EC0001D00123FB71FB7918460C37BD4680BC3F
:1010FC00704700BF0020024023016745AB89EFCD4C
:10110C0080B400AF054B1B69044A43F080031361A4
:10111C0000231846BD4680BC704700BF002002402B
:10112C0080B483B000AF78600B467B80084B002204
:10113C00DA61084B1B69074A43F0010313617B68B2
:10114C007A881A8000BF0C37BD4680BC704700BF40
:10115C00E00100200020024080B584B000AF786030
:10116C00FFF704FEF86010E07B68B3F1FF3F0CD092
:10117C007B68002B07D0FFF7F9FD0246FB68D31AFA
:10118C007A689A4201D2032325E0154BDB6803F001
:10119C000103002BE8D1124BDB6803F02003002B7A
:1011AC0002D00F4B2022DA600D4BDB6803F01003EA
:1011BC00002B0BD10A4BDB6903F00103002B05D18B
:1011CC00074BDB6803F00403002B03D000F00AF894
:1011DC00012300E0002318461037BD4680BD00BF38
:1011EC000020024080B483B000AF00237B60234B0F
:1011FC00DB6803F01003002B09D0214BDB6943F0B3
:10120C0002031F4AD3617B6843F010037B601B4BC6
:10121C00DB6803F00403002B09D0194BDB6943F0A6
:10122C000103174AD3617B6843F004037B60134BC3
:10123C00DB6903F00103002B0BD0114BDB6943F08E
:10124C0004030F4AD3610D4BDB690C4A23F00103F5
:10125C00D3617B6840F20112934206D1074BDB69E4
:10126C00064A23F00103D36102E0044A7B68D36091
:10127C0000BF0C37BD4680BC704700BF0020024049
:10128C00E001002080B584B000AF786039600123A4
:10129C00FB730023BB602F4B1B7E012B01D1022360
:1012AC0053E02C4B01221A767B681B68022B16D15B
:1012BC004CF25030FFF750FF0346002B41D1012078
:1012CC0000F04CF84CF25030FFF746FF0346FB732E
:1012DC00214B1B69204A23F00403136131E04CF2CB
:1012EC005030FFF739FF0346002B2AD13B684FF0F3
:1012FC00FF321A607B689B68BB6019E0B86800F02D
:10130C0049F84CF25030FFF727FF0346FB73124BA2
:10131C001B69114A23F002031361FB7B002B03D0E2
:10132C003B68BA681A600CE0BB6803F58063BB606D
:10133C007B68DB689A027B689B681344BA689A42A4
:10134C00DCD3044B00221A76FB7B18461037BD46C3
:10135C0080BD00BFE00100200020024080B483B0BB
:10136C0000AF7860094B0022DA61094B1B69084A0F
:10137C0043F004031361064B1B69054A43F0400319
:10138C00136100BF0C37BD4680BC7047E0010020E4
:10139C000020024080B483B000AF78600B4B002279
:1013AC00DA610B4B1B690A4A43F002031361084ACA
:1013BC007B685361064B1B69054A43F0400313617C
:1013CC0000BF0C37BD4680BC704700BFE001002059
:1013DC000020024080B48BB000AF786039600023ED
:1013EC007B6200233B6269E101227B6A02FA03F310
:1013FC00FB613B681B68FA691340BB61BA69FB6906
:10140C009A4240F058813B685B689A4A93425ED09E
:10141C00984A934275D8984A934258D0964A934228
:10142C006FD8964A934252D0944A934269D8944AC0
:10143C0093424CD0924A934263D8924A934246D0FC
:10144C00904A93425DD8122B2AD8122B59D801A25C
:10145C0052F823F0DB140008B5140008C714000878
:10146C00091500080F1500080F1500080F150008C6
:10147C000F1500080F1500080F1500080F150008B0
:10148C000F1500080F1500080F1500080F150008A0
:10149C000F1500080F150008BD140008D114000822
:1014AC00794A934213D02CE03B68DB683B6229E01D
:1014BC003B68DB6804333B6224E03B68DB68083341
:1014CC003B621FE03B68DB680C333B621AE03B6815
:1014DC009B68002B02D104233B6213E03B689B68A2
:1014EC00012B05D108233B627B68FA691A6109E07C
:1014FC0008233B627B68FA695A6103E000233B6274
:10150C0000E000BFBB69FF2B01D87B6801E07B6862
:10151C0004337B61BB69FF2B02D87B6A9B0002E022
:10152C007B6A083B9B003B617B691A680F213B6916
:10153C0001FA03F3DB431A40396A3B6901FA03F3FE
:10154C001A437B691A603B685B6803F08053002B7D
:10155C0000F0B1804D4B9B694C4A43F00103936101
:10156C004A4B9B6903F00103BB60BB68484A7B6A2A
:10157C009B08023352F82330FB607B6A03F00303B1
:10158C009B000F2202FA03F3DB43FA681340FB6063
:10159C007B68404A934213D07B683F4A93420DD0FC
:1015AC007B683E4A934207D07B683D4A934201D107
:1015BC00032306E0042304E0022302E0012300E0FD
:1015CC0000237A6A02F0030292009340FA681343F4
:1015DC00FB602F497B6A9B080233FA6841F8232091
:1015EC003B685B6803F48013002B06D02D4B9A6884
:1015FC002C49BB6913438B6006E02A4B9A68BB6984
:10160C00DB43284913408B603B685B6803F4001391
:10161C00002B06D0234BDA682249BB691343CB60FD
:10162C0006E0204BDA68BB69DB431E491340CB60F4
:10163C003B685B6803F40033002B06D0194B5A68E7
:10164C001849BB6913434B6006E0164B5A68BB69DB
:10165C00DB43144913404B603B685B6803F48033F5
:10166C00002B21D00F4B1A680E49BB6913430B603A
:10167C0021E000BF000032100000311000002210E9
:10168C000000211000001210000011100010024088
:10169C000000014000080140000C01400010014016
:1016AC0000140140000401400B4B1A68BB69DB437A
:1016BC00094913400B607B6A01337B623B681A68F3
:1016CC007B6A22FA03F3002B7FF48EAE00BF00BFBF
:1016DC002C37BD4680BC70470004014080B485B0F7
:1016EC0000AF78600B467B807B689A687B881340E0
:1016FC00002B02D00123FB7301E00023FB73FB7B67
:10170C0018461437BD4680BC704780B483B000AF18
:10171C0078600B467B8013467B707B78002B03D064
:10172C007A887B681A6103E07B881A047B681A61EB
:10173C0000BF0C37BD4680BC7047000080B586B03A
:10174C0000AF78607B68002B01D101236CE27B68D1
:10175C001B6803F00103002B00F08780924B5B6841
:10176C0003F00C03042B0CD08F4B5B6803F00C03C1
:10177C00082B12D18C4B5B6803F48033B3F5803F9C
:10178C000BD1894B1B6803F40033002B6CD07B68A6
:10179C005B68002B68D1012346E27B685B68B3F57C
:1017AC00803F06D1804B1B687F4A43F48033136023
:1017BC002EE07B685B68002B0CD17B4B1B687A4A54
:1017CC0023F480331360784B1B68774A23F480230F
:1017DC0013601DE07B685B68B3F5A02F0CD1724BD6
:1017EC001B68714A43F4802313606F4B1B686E4A6D
:1017FC0043F4803313600BE06B4B1B686A4A23F491
:10180C0080331360684B1B68674A23F48023136092
:10181C007B685B68002B13D0FFF7A8FA386108E0EF
:10182C00FFF7A4FA02463B69D31A642B01D90323B0
:10183C00FAE15D4B1B6803F40033002BF0D014E08D
:10184C00FFF794FA386108E0FFF790FA02463B691B
:10185C00D31A642B01D90323E6E1534B1B6803F421
:10186C000033002BF0D100E000BF7B681B6803F055
:10187C000203002B63D04C4B5B6803F00C03002B72
:10188C000BD0494B5B6803F00C03082B1CD1464B67
:10189C005B6803F48033002B16D1434B1B6803F0B9
:1018AC000203002B05D07B681B69012B01D001239F
:1018BC00BAE13D4B1B6823F0F8027B685B69DB00E7
:1018CC00394913430B603AE07B681B69002B20D02D
:1018DC00364B01221A60FFF749FA386108E0FFF72E
:1018EC0045FA02463B69D31A022B01D903239BE12B
:1018FC002D4B1B6803F00203002BF0D02A4B1B6806
:10190C0023F0F8027B685B69DB00274913430B600B
:10191C0015E0264B00221A60FFF728FA386108E020
:10192C00FFF724FA02463B69D31A022B01D9032391
:10193C007AE11D4B1B6803F00203002BF0D17B688E
:10194C001B6803F00803002B3AD07B689B69002BC3
:10195C0019D0174B01221A60FFF708FA386108E01A
:10196C00FFF704FA02463B69D31A022B01D9032371
:10197C005AE10D4B5B6A03F00203002BF0D00120FF
:10198C0000F0CCFA1CE00A4B00221A60FFF7EEF9CB
:10199C0038610FE0FFF7EAF902463B69D31A022BD4
:1019AC0008D9032340E100BF00100240000042426E
:1019BC00800442429E4B5B6A03F00203002BE9D188
:1019CC007B681B6803F00403002B00F0A680002347
:1019DC00FB75974BDB6903F08053002B0DD1944BB7
:1019EC00DB69934A43F08053D361914BDB6903F07D
:1019FC008053BB60BB680123FB758E4B1B6803F4E3
:101A0C008073002B18D18B4B1B688A4A43F480736C
:101A1C001360FFF7ABF9386108E0FFF7A7F902464E
:101A2C003B69D31A642B01D90323FDE0814B1B685E
:101A3C0003F48073002BF0D07B68DB68012B06D19C
:101A4C007B4B1B6A7A4A43F0010313622DE07B68DF
:101A5C00DB68002B0CD1764B1B6A754A23F0010313
:101A6C001362734B1B6A724A23F0040313621CE06B
:101A7C007B68DB68052B0CD16D4B1B6A6C4A43F001
:101A8C00040313626A4B1B6A694A43F00103136235
:101A9C000BE0674B1B6A664A23F001031362644B2D
:101AAC001B6A634A23F0040313627B68DB68002B18
:101ABC0015D0FFF75BF938610AE0FFF757F90246DA
:101ACC003B69D31A41F28832934201D90323ABE02C
:101ADC00574B1B6A03F00203002BEED014E0FFF708
:101AEC0045F938610AE0FFF741F902463B69D31A20
:101AFC0041F28832934201D9032395E04C4B1B6A87
:101B0C0003F00203002BEED1FB7D012B05D1484BDA
:101B1C00DB69474A23F08053D3617B68DB69002B78
:101B2C0000F08180424B5B6803F00C03082B61D002
:101B3C007B68DB69022B46D13F4B00221A60FFF712
:101B4C0015F9386108E0FFF711F902463B69D31A21
:101B5C00022B01D9032367E0354B1B6803F000739C
:101B6C00002BF0D17B681B6AB3F5803F08D1304B5A
:101B7C005B6823F400327B689B682D4913434B60F0
:101B8C002B4B5B6823F474127B68196A7B685B6A65
:101B9C000B43274913434B60274B01221A60FFF775
:101BAC00E5F8386108E0FFF7E1F802463B69D31A23
:101BBC00022B01D9032337E01D4B1B6803F0007384
:101BCC00002BF0D02FE01C4B00221A60FFF7CEF850
:101BDC00386108E0FFF7CAF802463B69D31A022BBA
:101BEC0001D9032320E0124B1B6803F00073002B78
:101BFC00F0D118E07B68DB69012B01D1012313E0E4
:101C0C000B4B5B68FB60FB6803F480327B681B6AE0
:101C1C009A4206D1FB6803F470127B685B6A9A42A5
:101C2C0001D0012300E0002318461837BD4680BDC3
:101C3C0000100240007000406000424280B584B049
:101C4C0000AF786039607B68002B01D10123D0E0B4
:101C5C006A4B1B6803F007033A689A4210D9674B2A
:101C6C001B6823F0070265493B6813430B60634B09
:101C7C001B6803F007033A689A4201D00123B8E0CD
:101C8C007B681B6803F00203002B20D07B681B6869
:101C9C0003F00403002B05D0594B5B68584A43F4FE
:101CAC00E06353607B681B6803F00803002B05D0CE
:101CBC00534B5B68524A43F460535360504B5B6820
:101CCC0023F0F0027B689B684D4913434B607B68A3
:101CDC001B6803F00103002B40D07B685B68012B71
:101CEC0007D1474B1B6803F40033002B15D101239C
:101CFC007FE07B685B68022B07D1414B1B6803F0CC
:101D0C000073002B09D1012373E03D4B1B6803F0DA
:101D1C000203002B01D101236BE0394B5B6823F0EC
:101D2C0003027B685B68364913434B60FFF71EF870
:101D3C00F8600AE0FFF71AF80246FB68D31A41F282
:101D4C008832934201D9032353E02D4B5B6803F097
:101D5C000C027B685B689B009A42EBD1274B1B689B
:101D6C0003F007033A689A4210D2244B1B6823F005
:101D7C00070222493B6813430B60204B1B6803F09E
:101D8C0007033A689A4201D0012332E07B681B6852
:101D9C0003F00403002B08D0194B5B6823F4E062BA
:101DAC007B68DB68164913434B607B681B6803F048
:101DBC000803002B09D0124B5B6823F460527B683C
:101DCC001B69DB000E4913434B6000F021F80246FF
:101DDC000B4B5B681B0903F00F030A49CB5C22FA1F
:101DEC0003F3094A1360094B1B681846FEF77CFF86
:101DFC00002318461037BD4680BD00BF00200240AE
:101E0C0000100240D02500080C000020100000201B
:101E1C0080B487B000AF0023FB600023BB600023BD
:101E2C007B6100237B6000233B611E4B5B68FB6086
:101E3C00FB6803F00C03042B02D0082B03D027E023
:101E4C00194B3B6127E0FB689B0C03F00F03174A0F
:101E5C00D35C7B60FB6803F48033002B10D0114BF8
:101E6C005B685B0C03F00103114AD35CBB607B68BD
:101E7C000D4A02FB03F2BB68B2FBF3F37B6104E097
:101E8C007B680C4A02FB03F37B617B693B6102E0DC
:101E9C00054B3B6100BF3B6918461C37BD4680BCF7
:101EAC00704700BF0010024000127A00E8250008BD
:101EBC00F825000800093D0080B400AF024B1B68F8
:101ECC001846BD4680BC70470C00002080B500AFA2
:101EDC00FFF7F2FF0246054B5B681B0A03F0070392
:101EEC000349CB5C22FA03F3184680BD0010024074
:101EFC00E025000880B500AFFFF7DEFF0246054B7A
:101F0C005B68DB0A03F007030349CB5C22FA03F39B
:101F1C00184680BD00100240E025000880B485B052
:101F2C0000AF78600A4B1B680A4AA2FB03235B0ACA
:101F3C007A6802FB03F3FB6000BFFB685A1EFA6071
:101F4C00002BF9D100BF00BF1437BD4680BC7047D1
:101F5C000C000020D34D621080B582B000AF7860C9
:101F6C007B68002B01D1012342E07B6893F8413060
:101F7C00DBB2002B06D17B68002283F84020786806
:101F8C00FEF788FD7B68242283F841207B681B6860
:101F9C00DA687B681B6822F40052DA60786800F01B
:101FAC0009FA7B681B681A697B681B6822F49042EB
:101FBC001A617B681B685A697B681B6822F02A02CD
:101FCC005A617B681B68DA687B681B6842F40052B4
:101FDC00DA607B6800225A647B68202283F84120F7
:101FEC007B68202283F842207B6800225A630023FE
:101FFC0018460837BD4680BD80B58AB002AFF86080
:10200C00B9603B601346FB8000237B61FB6893F84F
:10201C004130DBB2202B75D1BB68002B02D0FB8882
:10202C00002B01D101236EE0FB6800225A64FB688F
:10203C00212283F84120FEF799FE7861FB68FA882B
:10204C009A84FB68FA88DA84FB689B68B3F5805F36
:10205C0008D1FB681B69002B04D10023FB61BB6812
:10206C00BB6103E0BB68FB610023BB612EE03B68F6
:10207C0000937B6900228021F86800F0DFF80346AA
:10208C00002B05D0FB68202283F8412003233AE083
:10209C00FB69002B0BD1BB691B881A46FB681B68BC
:1020AC00C2F308025A60BB690233BB6107E0FB69EB
:1020BC001A78FB681B685A60FB690133FB61FB688B
:1020CC00DB8C9BB2013B9AB2FB68DA84FB68DB8C3D
:1020DC009BB2002BCBD13B6800937B690022402143
:1020EC00F86800F0ABF80346002B05D0FB68202203
:1020FC0083F84120032306E0FB68202283F841206B
:10210C00002300E0022318462037BD4680BD80B571
:10211C008AB002AFF860B9603B601346FB800023C5
:10212C007B61FB6893F84230DBB2202B40F081805E
:10213C00BB68002B02D0FB88002B01D1012379E076
:10214C00FB6800225A64FB68222283F84220FB6859
:10215C0000221A63FEF70AFE7861FB68FA889A85FA
:10216C00FB68FA88DA85FB689B68B3F5805F08D159
:10217C00FB681B69002B04D10023FB61BB68BB61AE
:10218C0003E0BB68FB610023BB6147E03B68009345
:10219C007B6900222021F86800F050F80346002BE0
:1021AC0005D0FB68202283F84220032342E0FB6920
:1021BC00002B0CD1FB681B685B689BB2C3F3080354
:1021CC009AB2BB691A80BB690233BB611FE0FB6822
:1021DC009B68B3F5805F07D0FB689B68002B0AD126
:1021EC00FB681B69002B06D1FB681B685B68DAB2C5
:1021FC00FB691A7008E0FB681B685B68DBB203F0D4
:10220C007F03DAB2FB691A70FB690133FB61FB686F
:10221C00DB8D9BB2013B9AB2FB68DA85FB68DB8DE8
:10222C009BB2002BB2D1FB68202283F84220002302
:10223C0000E0022318462037BD4680BD80B586B02D
:10224C0000AFF860B9603B601346FB713BE03B6A42
:10225C00B3F1FF3F37D0FEF789FD02463B68D31A36
:10226C003A6A9A4202D33B6A002B01D103233AE02B
:10227C00FB681B68DB6803F00403002B23D0BB68EE
:10228C00802B20D0BB68402B1DD0FB681B681B68C3
:10229C0003F00803082B16D100237B61FB681B6835
:1022AC001B687B61FB681B685B687B617B69F868FA
:1022BC0000F01DF8FB6808225A64FB68002283F8C2
:1022CC00402001230FE0FB681B681A68BB681340B1
:1022DC00BA689A420CBF01230023DBB21A46FB7981
:1022EC009A42B4D0002318461837BD4680BD80B43E
:1022FC0095B000AF78607B681B680C337B637B6B9D
:10230C0053E8003F3B633B6B23F49073FB647B68A7
:10231C001B680C33FA6C3A64FB63F96B3A6C41E85A
:10232C000023BB63BB6B002BE5D17B681B681433AC
:10233C003B623B6A53E8003FFB61FB6923F00103FE
:10234C00BB647B681B681433BA6CFA62BB62B96AF3
:10235C00FA6A41E800237B627B6A002BE5D17B683B
:10236C001B6B012B19D17B681B680C33FB60FB6862
:10237C0053E8003FBB60BB6823F010037B647B68B1
:10238C001B680C337A6CBA617B617969BA6941E874
:10239C0000233B613B69002BE5D17B68202283F84D
:1023AC0042207B6800221A6300BF5437BD4680BCB4
:1023BC007047000080B584B000AF78607B681B6804
:1023CC001B6923F440517B68DA687B681B680A43FD
:1023DC001A617B689A687B681B691A437B685B6926
:1023EC001343BB607B681B68DB6823F4B05323F09A
:1023FC000C037A681268B9680B43D3607B681B685E
:10240C005B6923F440717B689A697B681B680A439B
:10241C005A617B681B682C4A934203D1FFF76AFD13
:10242C00F86002E0FFF752FDF860FA6813469B0073
:10243C0013449A001A447B685B689B00B2FBF3F36D
:10244C00224AA2FB03235B091901FA6813469B007D
:10245C0013449A001A447B685B689B00B2FBF3F24E
:10246C001A4BA3FB02035B09642000FB03F3D31A92
:10247C001B013233154AA2FB03235B0903F0F00363
:10248C001944FA6813469B0013449A001A447B685B
:10249C005B689B00B2FBF3F20C4BA3FB02035B09E2
:1024AC00642000FB03F3D31A1B013233074AA2FB4F
:1024BC0003235B0903F00F027B681B680A449A60D4
:1024CC0000BF1037BD4680BD003801401F85EB5161
:1024DC0070B500260C4D0D4C641BA410A64209D1FE
:1024EC0000F022F800260A4D0A4C641BA410A642E8
:1024FC0005D170BD55F8043B98470136EEE755F809
:10250C00043B98470136F2E7FC250008FC2500083F
:10251C00FC2500080026000803460244934200D123
:10252C00704703F8011BF9E7F8B500BFF8BC08BC0D
:10253C009E467047F8B500BFF8BC08BC9E46704775
:10254C004E6F2076616C6964206170706C69636198
:10255C0074696F6E20666F756E642E20537461798A
:10256C00696E6720696E20626F6F746C6F61646551
:10257C00722E2E2E0D0A00004A756D70696E672042
:10258C00746F2055736572204170706C696361744F
:10259C00696F6E2E2E2E0D0A00000000496E7661BA
:1025AC006C6964204D53500D0A000000496E766131
:1025BC006C69642072657365742068616E646C6507
:1025CC00720D0A000000000000000000010203046C
:1025DC0006070809000000000102030402030405B9
:1025EC00060708090A0B0C0D0E0F10100102000053
:0425FC0031010008A1
:042600000D010008C0
:102604005152535455565758595A5B5C00127A002C
:082614001000000001000000AD
:0400000508000C7D66
:00000001FF
